:020000040800F2
:100000000000022045040008CD030008D3030008C7
:10001000D9030008DF030008E50300080000000022
:10002000000000000000000000000000EB030008DA
:10003000F903000800000000070400081504000888
:10004000950400089504000895040008950400082C
:10005000950400089504000895040008950400081C
:10006000950400089504000895040008950400080C
:1000700095040008950400089504000895040008FC
:1000800095040008950400089504000895040008EC
:1000900095040008950400089504000895040008DC
:1000A00095040008950400089504000895040008CC
:1000B00095040008950400089504000895040008BC
:1000C00095040008950400089504000895040008AC
:1000D000950400089504000895040008950400089C
:1000E000950400089504000895040008950400088C
:1000F000950400089504000895040008950400087C
:10010000950400089504000895040008950400086B
:10011000950400089504000895040008950400085B
:10012000950400089504000895040008950400084B
:10013000950400089504000895040008950400083B
:10014000950400089504000895040008950400082B
:10015000950400089504000895040008950400081B
:10016000950400089504000895040008950400080B
:10017000950400089504000895040008000000009C
:08018000950400089504000835
:1001880010B5054C237833B9044B13B10448AFF3C9
:1001980000800123237010BD04000020000000002F
:1001A8000805000808B5034B1BB103490348AFF322
:1001B800008008BD000000000800002008050008B5
:1001C80080B400AF154B1B68144A43F00103136059
:1001D80000BF124B1B6803F00203002BF9D0104B31
:1001E80000221A600D4B0D4A9B68936000BF0B4BB1
:1001F8009B6803F00C03002BF9D1084B074A9B6856
:100208009360064B054A9B689360044B034A9B68BE
:10021800936000BFBD465DF8047B7047003802401C
:10022800003C024080B483B000AF224B1B6B214AD4
:1002380043F0010313631F4B1B6B1E4A43F0080373
:1002480013631D4B1B681C4A23F0030313600C2324
:100258007B6024E0194B1B687A685200032101FA7D
:1002680002F2D2431146154A0B401360134B1B6828
:100278007A685200012101FA02F211460F4A0B4333
:1002880013600E4B5B6801217A6801FA02F2D243CF
:1002980011460A4A0B4053607B6801337B607B68D8
:1002A8000E2BD7DD00BF00BF0C37BD465DF8047BC1
:1002B800704700BF0038024000000240000C0240B6
:1002C80080B483B000AF786001227B689A40044B09
:1002D8009A6100BF0C37BD465DF8047B704700BFCC
:1002E800000C024080B483B000AF78607B681033A4
:1002F80001229A40034B9A6100BF0C37BD465DF856
:10030800047B7047000C024080B483B000AF002328
:100318007B6002E07B6801337B607B6842F20F728E
:100328009342F7DD00BF00BF0C37BD465DF8047B84
:100338007047000090B587B000AFFFF741FFFFF7A7
:1003480071FF1E4B3C460FCB84E80F0000237B61F6
:1003580001233B611A4B1B6903F00103002B29D0D1
:100368003B69002BF6D0FFF7CFFF154B1B6903F055
:100378000103002BEED000233B617B699B001833FF
:100388003B4453F8183C1846FFF7ACFF7B69013330
:100398005A4203F0030302F0030258BF53427B6141
:1003A8007B699B0018333B4453F8183C1846FFF709
:1003B80087FFCFE701233B61CCE700BF200500089A
:1003C8000000024080B400AFFEE780B400AFFEE753
:1003D80080B400AFFEE780B400AFFEE780B400AFA2
:1003E800FEE780B400AF00BFBD465DF8047B7047F0
:1003F80080B400AF00BFBD465DF8047B704780B491
:1004080000AF00BFBD465DF8047B704780B500AF04
:1004180000F03EF800BF80BD80B400AF064BD3F8B3
:100428008830054A43F47003C2F8883000BFBD46DF
:100438005DF8047B704700BF00ED00E0DFF834D0C2
:100448000D480E490E4A002302E0D458C450043324
:10045800C4188C42F9D30B4A0B4C002301E01360FB
:100468000432A242FBD3FFF7D7FF00F025F8FFF7CD
:1004780061FF7047000002200000002004000020F7
:10048800380500080400002024000020FEE70000D2
:1004980080B400AF064B1B781A46064B1B68134402
:1004A800044A136000BFBD465DF8047B704700BF77
:1004B800000000202000002070B50D4D0D4C641B7D
:1004C800A4100026A64209D10B4D0C4C00F018F8D8
:1004D800641BA4100026A64205D170BD55F8043B44
:1004E80098470136EEE755F8043B98470136F2E79E
:1004F80030050008300500083005000834050008FC
:10050800F8B500BFF8BC08BC9E467047F8B500BFF8
:08051800F8BC08BC9E467047C8
:100520000C0000000D0000000E0000000F00000095
:04053000AD01000811
:040534008901000831
:0405380001000000BE
:0400000508000445A6
:00000001FF
